{
  "contractName": "Token",
  "abi": [
    {
      "inputs": [],
      "payable": false,
      "stateMutability": "nonpayable",
      "type": "constructor"
    },
    {
      "anonymous": false,
      "inputs": [
        {
          "indexed": false,
          "internalType": "address",
          "name": "account",
          "type": "address"
        }
      ],
      "name": "Paused",
      "type": "event"
    },
    {
      "anonymous": false,
      "inputs": [
        {
          "indexed": false,
          "internalType": "address",
          "name": "account",
          "type": "address"
        }
      ],
      "name": "Unpaused",
      "type": "event"
    },
    {
      "constant": true,
      "inputs": [
        {
          "internalType": "address",
          "name": "",
          "type": "address"
        },
        {
          "internalType": "address",
          "name": "",
          "type": "address"
        }
      ],
      "name": "allowance",
      "outputs": [
        {
          "internalType": "uint256",
          "name": "",
          "type": "uint256"
        }
      ],
      "payable": false,
      "stateMutability": "view",
      "type": "function"
    },
    {
      "constant": true,
      "inputs": [
        {
          "internalType": "address",
          "name": "",
          "type": "address"
        }
      ],
      "name": "balanceOf",
      "outputs": [
        {
          "internalType": "uint256",
          "name": "",
          "type": "uint256"
        }
      ],
      "payable": false,
      "stateMutability": "view",
      "type": "function"
    },
    {
      "constant": true,
      "inputs": [],
      "name": "minter",
      "outputs": [
        {
          "internalType": "address",
          "name": "",
          "type": "address"
        }
      ],
      "payable": false,
      "stateMutability": "view",
      "type": "function"
    },
    {
      "constant": true,
      "inputs": [],
      "name": "name",
      "outputs": [
        {
          "internalType": "string",
          "name": "",
          "type": "string"
        }
      ],
      "payable": false,
      "stateMutability": "view",
      "type": "function"
    },
    {
      "constant": true,
      "inputs": [],
      "name": "paused",
      "outputs": [
        {
          "internalType": "bool",
          "name": "",
          "type": "bool"
        }
      ],
      "payable": false,
      "stateMutability": "view",
      "type": "function"
    },
    {
      "constant": true,
      "inputs": [],
      "name": "symbol",
      "outputs": [
        {
          "internalType": "string",
          "name": "",
          "type": "string"
        }
      ],
      "payable": false,
      "stateMutability": "view",
      "type": "function"
    },
    {
      "constant": true,
      "inputs": [],
      "name": "totalSupply",
      "outputs": [
        {
          "internalType": "uint256",
          "name": "",
          "type": "uint256"
        }
      ],
      "payable": false,
      "stateMutability": "view",
      "type": "function"
    },
    {
      "constant": true,
      "inputs": [
        {
          "internalType": "address",
          "name": "_user",
          "type": "address"
        }
      ],
      "name": "get_balance",
      "outputs": [
        {
          "internalType": "uint256",
          "name": "",
          "type": "uint256"
        }
      ],
      "payable": false,
      "stateMutability": "view",
      "type": "function"
    },
    {
      "constant": false,
      "inputs": [
        {
          "internalType": "address",
          "name": "dBank",
          "type": "address"
        }
      ],
      "name": "passMinterRole",
      "outputs": [
        {
          "internalType": "bool",
          "name": "",
          "type": "bool"
        }
      ],
      "payable": false,
      "stateMutability": "nonpayable",
      "type": "function"
    },
    {
      "constant": false,
      "inputs": [
        {
          "internalType": "address",
          "name": "_account",
          "type": "address"
        },
        {
          "internalType": "uint256",
          "name": "_amount",
          "type": "uint256"
        }
      ],
      "name": "mint",
      "outputs": [],
      "payable": false,
      "stateMutability": "nonpayable",
      "type": "function"
    },
    {
      "constant": false,
      "inputs": [],
      "name": "pause_token",
      "outputs": [
        {
          "internalType": "bool",
          "name": "result",
          "type": "bool"
        }
      ],
      "payable": false,
      "stateMutability": "nonpayable",
      "type": "function"
    },
    {
      "constant": false,
      "inputs": [],
      "name": "unpause_token",
      "outputs": [
        {
          "internalType": "bool",
          "name": "result",
          "type": "bool"
        }
      ],
      "payable": false,
      "stateMutability": "nonpayable",
      "type": "function"
    },
    {
      "constant": false,
      "inputs": [
        {
          "internalType": "address",
          "name": "_account",
          "type": "address"
        },
        {
          "internalType": "uint256",
          "name": "_amount",
          "type": "uint256"
        }
      ],
      "name": "burn",
      "outputs": [],
      "payable": false,
      "stateMutability": "nonpayable",
      "type": "function"
    },
    {
      "constant": false,
      "inputs": [
        {
          "internalType": "address",
          "name": "_to",
          "type": "address"
        },
        {
          "internalType": "uint256",
          "name": "_value",
          "type": "uint256"
        }
      ],
      "name": "transfer",
      "outputs": [
        {
          "internalType": "bool",
          "name": "result",
          "type": "bool"
        }
      ],
      "payable": false,
      "stateMutability": "nonpayable",
      "type": "function"
    },
    {
      "constant": true,
      "inputs": [
        {
          "internalType": "address",
          "name": "_owner",
          "type": "address"
        },
        {
          "internalType": "address",
          "name": "_spender",
          "type": "address"
        }
      ],
      "name": "allowed",
      "outputs": [
        {
          "internalType": "uint256",
          "name": "",
          "type": "uint256"
        }
      ],
      "payable": false,
      "stateMutability": "view",
      "type": "function"
    },
    {
      "constant": false,
      "inputs": [
        {
          "internalType": "address",
          "name": "_owner",
          "type": "address"
        },
        {
          "internalType": "address",
          "name": "_spender",
          "type": "address"
        },
        {
          "internalType": "uint256",
          "name": "amount",
          "type": "uint256"
        }
      ],
      "name": "approve",
      "outputs": [],
      "payable": false,
      "stateMutability": "nonpayable",
      "type": "function"
    },
    {
      "constant": false,
      "inputs": [
        {
          "internalType": "address",
          "name": "_to",
          "type": "address"
        },
        {
          "internalType": "uint256",
          "name": "_amount",
          "type": "uint256"
        }
      ],
      "name": "allow",
      "outputs": [
        {
          "internalType": "bool",
          "name": "result",
          "type": "bool"
        }
      ],
      "payable": false,
      "stateMutability": "nonpayable",
      "type": "function"
    },
    {
      "constant": false,
      "inputs": [
        {
          "internalType": "address",
          "name": "_to",
          "type": "address"
        },
        {
          "internalType": "uint256",
          "name": "_amount",
          "type": "uint256"
        }
      ],
      "name": "increase_allow",
      "outputs": [
        {
          "internalType": "bool",
          "name": "result",
          "type": "bool"
        }
      ],
      "payable": false,
      "stateMutability": "nonpayable",
      "type": "function"
    },
    {
      "constant": false,
      "inputs": [
        {
          "internalType": "address",
          "name": "_to",
          "type": "address"
        },
        {
          "internalType": "uint256",
          "name": "_amount",
          "type": "uint256"
        }
      ],
      "name": "decrease_allow",
      "outputs": [
        {
          "internalType": "bool",
          "name": "result",
          "type": "bool"
        }
      ],
      "payable": false,
      "stateMutability": "nonpayable",
      "type": "function"
    },
    {
      "constant": false,
      "inputs": [
        {
          "internalType": "address",
          "name": "_from",
          "type": "address"
        },
        {
          "internalType": "address",
          "name": "_to",
          "type": "address"
        },
        {
          "internalType": "uint256",
          "name": "_amount",
          "type": "uint256"
        }
      ],
      "name": "transferFrom",
      "outputs": [
        {
          "internalType": "bool",
          "name": "result",
          "type": "bool"
        }
      ],
      "payable": false,
      "stateMutability": "nonpayable",
      "type": "function"
    }
  ],
  "bytecode": "0x60806040526040518060400160405280600581526020017f6462616e6b000000000000000000000000000000000000000000000000000000815250600190805190602001906200005192919062000150565b506040518060400160405280600381526020017f44424b0000000000000000000000000000000000000000000000000000000000815250600290805190602001906200009f92919062000150565b50348015620000ad57600080fd5b5060008060006101000a81548160ff02191690831515021790555033600360006101000a81548173ffffffffffffffffffffffffffffffffffffffff021916908373ffffffffffffffffffffffffffffffffffffffff16021790555033600460006101000a81548173ffffffffffffffffffffffffffffffffffffffff021916908373ffffffffffffffffffffffffffffffffffffffff160217905550620001ff565b828054600181600116156101000203166002900490600052602060002090601f016020900481019282601f106200019357805160ff1916838001178555620001c4565b82800160010185558215620001c4579182015b82811115620001c3578251825591602001919060010190620001a6565b5b509050620001d39190620001d7565b5090565b620001fc91905b80821115620001f8576000816000905550600101620001de565b5090565b90565b6129e4806200020f6000396000f3fe608060405234801561001057600080fd5b506004361061012c5760003560e01c806370a08231116100ad578063b6320fb411610071578063b6320fb41461065f578063d7fc5b15146106c5578063dd62ed3e14610721578063e1f21c6714610799578063e3c8b826146108075761012c565b806370a08231146104ae57806390d2ffd31461050657806395d89b41146105285780639dc29fac146105ab578063a9059cbb146105f95761012c565b806340c10f19116100f457806340c10f19146102fa57806347412969146103485780635c658165146103ae5780635c975abb146104265780636c6f31f2146104485761012c565b806306fdde031461013157806307546172146101b457806318160ddd146101fe5780631e279a371461021c57806323b872dd14610274575b600080fd5b610139610829565b6040518080602001828103825283818151815260200191508051906020019080838360005b8381101561017957808201518184015260208101905061015e565b50505050905090810190601f1680156101a65780820380516001836020036101000a031916815260200191505b509250505060405180910390f35b6101bc6108c7565b604051808273ffffffffffffffffffffffffffffffffffffffff1673ffffffffffffffffffffffffffffffffffffffff16815260200191505060405180910390f35b6102066108ed565b6040518082815260200191505060405180910390f35b61025e6004803603602081101561023257600080fd5b81019080803573ffffffffffffffffffffffffffffffffffffffff1690602001909291905050506108f3565b6040518082815260200191505060405180910390f35b6102e06004803603606081101561028a57600080fd5b81019080803573ffffffffffffffffffffffffffffffffffffffff169060200190929190803573ffffffffffffffffffffffffffffffffffffffff1690602001909291908035906020019092919050505061093c565b604051808215151515815260200191505060405180910390f35b6103466004803603604081101561031057600080fd5b81019080803573ffffffffffffffffffffffffffffffffffffffff16906020019092919080359060200190929190505050610d10565b005b6103946004803603604081101561035e57600080fd5b81019080803573ffffffffffffffffffffffffffffffffffffffff16906020019092919080359060200190929190505050610fc8565b604051808215151515815260200191505060405180910390f35b610410600480360360408110156103c457600080fd5b81019080803573ffffffffffffffffffffffffffffffffffffffff169060200190929190803573ffffffffffffffffffffffffffffffffffffffff16906020019092919050505061126b565b6040518082815260200191505060405180910390f35b61042e6113e1565b604051808215151515815260200191505060405180910390f35b6104946004803603604081101561045e57600080fd5b81019080803573ffffffffffffffffffffffffffffffffffffffff169060200190929190803590602001909291905050506113f7565b604051808215151515815260200191505060405180910390f35b6104f0600480360360208110156104c457600080fd5b81019080803573ffffffffffffffffffffffffffffffffffffffff169060200190929190505050611693565b6040518082815260200191505060405180910390f35b61050e6116ab565b604051808215151515815260200191505060405180910390f35b6105306117f9565b6040518080602001828103825283818151815260200191508051906020019080838360005b83811015610570578082015181840152602081019050610555565b50505050905090810190601f16801561059d5780820380516001836020036101000a031916815260200191505b509250505060405180910390f35b6105f7600480360360408110156105c157600080fd5b81019080803573ffffffffffffffffffffffffffffffffffffffff16906020019092919080359060200190929190505050611897565b005b6106456004803603604081101561060f57600080fd5b81019080803573ffffffffffffffffffffffffffffffffffffffff16906020019092919080359060200190929190505050611bc8565b604051808215151515815260200191505060405180910390f35b6106ab6004803603604081101561067557600080fd5b81019080803573ffffffffffffffffffffffffffffffffffffffff16906020019092919080359060200190929190505050611e7d565b604051808215151515815260200191505060405180910390f35b610707600480360360208110156106db57600080fd5b81019080803573ffffffffffffffffffffffffffffffffffffffff1690602001909291905050506120e1565b604051808215151515815260200191505060405180910390f35b6107836004803603604081101561073757600080fd5b81019080803573ffffffffffffffffffffffffffffffffffffffff169060200190929190803573ffffffffffffffffffffffffffffffffffffffff16906020019092919050505061224e565b6040518082815260200191505060405180910390f35b610805600480360360608110156107af57600080fd5b81019080803573ffffffffffffffffffffffffffffffffffffffff169060200190929190803573ffffffffffffffffffffffffffffffffffffffff16906020019092919080359060200190929190505050612273565b005b61080f6124e3565b604051808215151515815260200191505060405180910390f35b60018054600181600116156101000203166002900480601f0160208091040260200160405190810160405280929190818152602001828054600181600116156101000203166002900480156108bf5780601f10610894576101008083540402835291602001916108bf565b820191906000526020600020905b8154815290600101906020018083116108a257829003601f168201915b505050505081565b600460009054906101000a900473ffffffffffffffffffffffffffffffffffffffff1681565b60055481565b6000600660008373ffffffffffffffffffffffffffffffffffffffff1673ffffffffffffffffffffffffffffffffffffffff168152602001908152602001600020549050919050565b60006109466113e1565b156109b9576040517f08c379a00000000000000000000000000000000000000000000000000000000081526004018080602001828103825260108152602001807f5061757361626c653a207061757365640000000000000000000000000000000081525060200191505060405180910390fd5b600073ffffffffffffffffffffffffffffffffffffffff168473ffffffffffffffffffffffffffffffffffffffff1614156109f357600080fd5b600073ffffffffffffffffffffffffffffffffffffffff168373ffffffffffffffffffffffffffffffffffffffff161415610a2d57600080fd5b60008211610a3a57600080fd5b81600760008673ffffffffffffffffffffffffffffffffffffffff1673ffffffffffffffffffffffffffffffffffffffff16815260200190815260200160002060003373ffffffffffffffffffffffffffffffffffffffff1673ffffffffffffffffffffffffffffffffffffffff168152602001908152602001600020541015610b2c576040517f08c379a00000000000000000000000000000000000000000000000000000000081526004018080602001828103825260148152602001807f4e6f7420656e6f75676820616c6c6f77616e636500000000000000000000000081525060200191505060405180910390fd5b81600660008673ffffffffffffffffffffffffffffffffffffffff1673ffffffffffffffffffffffffffffffffffffffff168152602001908152602001600020541015610be1576040517f08c379a000000000000000000000000000000000000000000000000000000000815260040180806020018281038252601d8152602001807f4e6f7420656e6f75676820746f6b656e7320746f207472616e7366657200000081525060200191505060405180910390fd5b81600760008673ffffffffffffffffffffffffffffffffffffffff1673ffffffffffffffffffffffffffffffffffffffff16815260200190815260200160002060003373ffffffffffffffffffffffffffffffffffffffff1673ffffffffffffffffffffffffffffffffffffffff1681526020019081526020016000206000828254039250508190555081600660008673ffffffffffffffffffffffffffffffffffffffff1673ffffffffffffffffffffffffffffffffffffffff1681526020019081526020016000206000828254039250508190555081600660008573ffffffffffffffffffffffffffffffffffffffff1673ffffffffffffffffffffffffffffffffffffffff16815260200190815260200160002060008282540192505081905550600190509392505050565b610d186113e1565b15610d8b576040517f08c379a00000000000000000000000000000000000000000000000000000000081526004018080602001828103825260108152602001807f5061757361626c653a207061757365640000000000000000000000000000000081525060200191505060405180910390fd5b600073ffffffffffffffffffffffffffffffffffffffff168273ffffffffffffffffffffffffffffffffffffffff161415610e2e576040517f08c379a00000000000000000000000000000000000000000000000000000000081526004018080602001828103825260188152602001807f4d696e7420746f20746865207a65726f2061646472657373000000000000000081525060200191505060405180910390fd5b60008111610ea4576040517f08c379a000000000000000000000000000000000000000000000000000000000815260040180806020018281038252600b8152602001807f5a65726f20616d6f756e7400000000000000000000000000000000000000000081525060200191505060405180910390fd5b600460009054906101000a900473ffffffffffffffffffffffffffffffffffffffff1673ffffffffffffffffffffffffffffffffffffffff163373ffffffffffffffffffffffffffffffffffffffff1614610f67576040517f08c379a000000000000000000000000000000000000000000000000000000000815260040180806020018281038252601c8152602001807f4f6e6c79206d696e74657220616c6c6f7720746f20646f20746869730000000081525060200191505060405180910390fd5b8060056000828254019250508190555080600660008473ffffffffffffffffffffffffffffffffffffffff1673ffffffffffffffffffffffffffffffffffffffff168152602001908152602001600020600082825401925050819055505050565b6000610fd26113e1565b15611045576040517f08c379a00000000000000000000000000000000000000000000000000000000081526004018080602001828103825260108152602001807f5061757361626c653a207061757365640000000000000000000000000000000081525060200191505060405180910390fd5b600073ffffffffffffffffffffffffffffffffffffffff168373ffffffffffffffffffffffffffffffffffffffff1614156110cb576040517f08c379a00000000000000000000000000000000000000000000000000000000081526004018080602001828103825260228152602001806128f36022913960400191505060405180910390fd5b60008211611124576040517f08c379a00000000000000000000000000000000000000000000000000000000081526004018080602001828103825260248152602001806128a76024913960400191505060405180910390fd5b61114082611132338661126b565b61263290919063ffffffff16565b600660003373ffffffffffffffffffffffffffffffffffffffff1673ffffffffffffffffffffffffffffffffffffffff1681526020019081526020016000205410156111d7576040517f08c379a00000000000000000000000000000000000000000000000000000000081526004018080602001828103825260298152602001806129366029913960400191505060405180910390fd5b81600760003373ffffffffffffffffffffffffffffffffffffffff1673ffffffffffffffffffffffffffffffffffffffff16815260200190815260200160002060008573ffffffffffffffffffffffffffffffffffffffff1673ffffffffffffffffffffffffffffffffffffffff168152602001908152602001600020600082825401925050819055506001905092915050565b60006112756113e1565b156112e8576040517f08c379a00000000000000000000000000000000000000000000000000000000081526004018080602001828103825260108152602001807f5061757361626c653a207061757365640000000000000000000000000000000081525060200191505060405180910390fd5b600073ffffffffffffffffffffffffffffffffffffffff168373ffffffffffffffffffffffffffffffffffffffff16141561132257600080fd5b600073ffffffffffffffffffffffffffffffffffffffff168273ffffffffffffffffffffffffffffffffffffffff16141561135c57600080fd5b600760008473ffffffffffffffffffffffffffffffffffffffff1673ffffffffffffffffffffffffffffffffffffffff16815260200190815260200160002060008373ffffffffffffffffffffffffffffffffffffffff1673ffffffffffffffffffffffffffffffffffffffff16815260200190815260200160002054905092915050565b60008060009054906101000a900460ff16905090565b60006114016113e1565b15611474576040517f08c379a00000000000000000000000000000000000000000000000000000000081526004018080602001828103825260108152602001807f5061757361626c653a207061757365640000000000000000000000000000000081525060200191505060405180910390fd5b600073ffffffffffffffffffffffffffffffffffffffff168373ffffffffffffffffffffffffffffffffffffffff1614156114fa576040517f08c379a00000000000000000000000000000000000000000000000000000000081526004018080602001828103825260228152602001806128f36022913960400191505060405180910390fd5b60008211611553576040517f08c379a00000000000000000000000000000000000000000000000000000000081526004018080602001828103825260248152602001806128a76024913960400191505060405180910390fd5b81600660003373ffffffffffffffffffffffffffffffffffffffff1673ffffffffffffffffffffffffffffffffffffffff168152602001908152602001600020541015611608576040517f08c379a000000000000000000000000000000000000000000000000000000000815260040180806020018281038252601a8152602001807f4e6f7420656e6f75676820746f6b656e7320746f20616c6c6f7700000000000081525060200191505060405180910390fd5b81600760003373ffffffffffffffffffffffffffffffffffffffff1673ffffffffffffffffffffffffffffffffffffffff16815260200190815260200160002060008573ffffffffffffffffffffffffffffffffffffffff1673ffffffffffffffffffffffffffffffffffffffff168152602001908152602001600020819055506001905092915050565b60066020528060005260406000206000915090505481565b60006116b56113e1565b611727576040517f08c379a00000000000000000000000000000000000000000000000000000000081526004018080602001828103825260148152602001807f5061757361626c653a206e6f742070617573656400000000000000000000000081525060200191505060405180910390fd5b600360009054906101000a900473ffffffffffffffffffffffffffffffffffffffff1673ffffffffffffffffffffffffffffffffffffffff163373ffffffffffffffffffffffffffffffffffffffff16146117ea576040517f08c379a000000000000000000000000000000000000000000000000000000000815260040180806020018281038252601c8152602001807f4f6e6c79206f776e65722063616e20756e706175736520746f6b656e0000000081525060200191505060405180910390fd5b6117f261264f565b6001905090565b60028054600181600116156101000203166002900480601f01602080910402602001604051908101604052809291908181526020018280546001816001161561010002031660029004801561188f5780601f106118645761010080835404028352916020019161188f565b820191906000526020600020905b81548152906001019060200180831161187257829003601f168201915b505050505081565b61189f6113e1565b15611912576040517f08c379a00000000000000000000000000000000000000000000000000000000081526004018080602001828103825260108152602001807f5061757361626c653a207061757365640000000000000000000000000000000081525060200191505060405180910390fd5b600073ffffffffffffffffffffffffffffffffffffffff168273ffffffffffffffffffffffffffffffffffffffff161415611998576040517f08c379a00000000000000000000000000000000000000000000000000000000081526004018080602001828103825260218152602001806129156021913960400191505060405180910390fd5b6000600660008473ffffffffffffffffffffffffffffffffffffffff1673ffffffffffffffffffffffffffffffffffffffff16815260200190815260200160002054905081811015611a52576040517f08c379a000000000000000000000000000000000000000000000000000000000815260040180806020018281038252601b8152602001807f4275726e20616d6f756e7420657863656564732062616c616e6365000000000081525060200191505060405180910390fd5b600360009054906101000a900473ffffffffffffffffffffffffffffffffffffffff1673ffffffffffffffffffffffffffffffffffffffff163373ffffffffffffffffffffffffffffffffffffffff161480611afb5750600460009054906101000a900473ffffffffffffffffffffffffffffffffffffffff1673ffffffffffffffffffffffffffffffffffffffff163373ffffffffffffffffffffffffffffffffffffffff16145b611b6d576040517f08c379a00000000000000000000000000000000000000000000000000000000081526004018080602001828103825260198152602001807f4f6e6c79206f776e65722063616e206275726e20746f6b656e0000000000000081525060200191505060405180910390fd5b818103600660008573ffffffffffffffffffffffffffffffffffffffff1673ffffffffffffffffffffffffffffffffffffffff1681526020019081526020016000208190555081600560008282540392505081905550505050565b6000611bd26113e1565b15611c45576040517f08c379a00000000000000000000000000000000000000000000000000000000081526004018080602001828103825260108152602001807f5061757361626c653a207061757365640000000000000000000000000000000081525060200191505060405180910390fd5b600073ffffffffffffffffffffffffffffffffffffffff168373ffffffffffffffffffffffffffffffffffffffff161415611ccb576040517f08c379a00000000000000000000000000000000000000000000000000000000081526004018080602001828103825260258152602001806128606025913960400191505060405180910390fd5b81600660003373ffffffffffffffffffffffffffffffffffffffff1673ffffffffffffffffffffffffffffffffffffffff168152602001908152602001600020541015611d80576040517f08c379a00000000000000000000000000000000000000000000000000000000081526004018080602001828103825260128152602001807f4e6f7420656e6f7567682062616c616e6365000000000000000000000000000081525060200191505060405180910390fd5b60008211611dd9576040517f08c379a00000000000000000000000000000000000000000000000000000000081526004018080602001828103825260248152602001806128a76024913960400191505060405180910390fd5b81600660003373ffffffffffffffffffffffffffffffffffffffff1673ffffffffffffffffffffffffffffffffffffffff1681526020019081526020016000206000828254039250508190555081600660008573ffffffffffffffffffffffffffffffffffffffff1673ffffffffffffffffffffffffffffffffffffffff168152602001908152602001600020600082825401925050819055506001905092915050565b6000611e876113e1565b15611efa576040517f08c379a00000000000000000000000000000000000000000000000000000000081526004018080602001828103825260108152602001807f5061757361626c653a207061757365640000000000000000000000000000000081525060200191505060405180910390fd5b600073ffffffffffffffffffffffffffffffffffffffff168373ffffffffffffffffffffffffffffffffffffffff161415611f80576040517f08c379a00000000000000000000000000000000000000000000000000000000081526004018080602001828103825260228152602001806128f36022913960400191505060405180910390fd5b60008211611fd9576040517f08c379a00000000000000000000000000000000000000000000000000000000081526004018080602001828103825260248152602001806128a76024913960400191505060405180910390fd5b6000611ff783611fe9338761126b565b61274890919063ffffffff16565b1161204d576040517f08c379a00000000000000000000000000000000000000000000000000000000081526004018080602001828103825260288152602001806128cb6028913960400191505060405180910390fd5b81600760003373ffffffffffffffffffffffffffffffffffffffff1673ffffffffffffffffffffffffffffffffffffffff16815260200190815260200160002060008573ffffffffffffffffffffffffffffffffffffffff1673ffffffffffffffffffffffffffffffffffffffff168152602001908152602001600020600082825403925050819055506001905092915050565b60006120eb6113e1565b1561215e576040517f08c379a00000000000000000000000000000000000000000000000000000000081526004018080602001828103825260108152602001807f5061757361626c653a207061757365640000000000000000000000000000000081525060200191505060405180910390fd5b600460009054906101000a900473ffffffffffffffffffffffffffffffffffffffff1673ffffffffffffffffffffffffffffffffffffffff163373ffffffffffffffffffffffffffffffffffffffff1614612204576040517f08c379a000000000000000000000000000000000000000000000000000000000815260040180806020018281038252602d815260200180612983602d913960400191505060405180910390fd5b81600460006101000a81548173ffffffffffffffffffffffffffffffffffffffff021916908373ffffffffffffffffffffffffffffffffffffffff16021790555060019050919050565b6007602052816000526040600020602052806000526040600020600091509150505481565b61227b6113e1565b156122ee576040517f08c379a00000000000000000000000000000000000000000000000000000000081526004018080602001828103825260108152602001807f5061757361626c653a207061757365640000000000000000000000000000000081525060200191505060405180910390fd5b600460009054906101000a900473ffffffffffffffffffffffffffffffffffffffff1673ffffffffffffffffffffffffffffffffffffffff163373ffffffffffffffffffffffffffffffffffffffff161461234857600080fd5b600073ffffffffffffffffffffffffffffffffffffffff168373ffffffffffffffffffffffffffffffffffffffff1614156123ce576040517f08c379a000000000000000000000000000000000000000000000000000000000815260040180806020018281038252602481526020018061295f6024913960400191505060405180910390fd5b600073ffffffffffffffffffffffffffffffffffffffff168273ffffffffffffffffffffffffffffffffffffffff161415612454576040517f08c379a00000000000000000000000000000000000000000000000000000000081526004018080602001828103825260228152602001806128856022913960400191505060405180910390fd5b80600760008573ffffffffffffffffffffffffffffffffffffffff1673ffffffffffffffffffffffffffffffffffffffff16815260200190815260200160002060008473ffffffffffffffffffffffffffffffffffffffff1673ffffffffffffffffffffffffffffffffffffffff16815260200190815260200160002060008282540192505081905550505050565b60006124ed6113e1565b15612560576040517f08c379a00000000000000000000000000000000000000000000000000000000081526004018080602001828103825260108152602001807f5061757361626c653a207061757365640000000000000000000000000000000081525060200191505060405180910390fd5b600360009054906101000a900473ffffffffffffffffffffffffffffffffffffffff1673ffffffffffffffffffffffffffffffffffffffff163373ffffffffffffffffffffffffffffffffffffffff1614612623576040517f08c379a000000000000000000000000000000000000000000000000000000000815260040180806020018281038252601a8152602001807f4f6e6c79206f776e65722063616e20706175736520746f6b656e00000000000081525060200191505060405180910390fd5b61262b612765565b6001905090565b600081830190508281101561264657600080fd5b80905092915050565b6126576113e1565b6126c9576040517f08c379a00000000000000000000000000000000000000000000000000000000081526004018080602001828103825260148152602001807f5061757361626c653a206e6f742070617573656400000000000000000000000081525060200191505060405180910390fd5b60008060006101000a81548160ff0219169083151502179055507f5db9ee0a495bf2e6ff9c91a7834c1ba4fdd244a5e8aa4e537bd38aeae4b073aa33604051808273ffffffffffffffffffffffffffffffffffffffff1673ffffffffffffffffffffffffffffffffffffffff16815260200191505060405180910390a1565b60008282111561275757600080fd5b818303905080905092915050565b61276d6113e1565b156127e0576040517f08c379a00000000000000000000000000000000000000000000000000000000081526004018080602001828103825260108152602001807f5061757361626c653a207061757365640000000000000000000000000000000081525060200191505060405180910390fd5b60016000806101000a81548160ff0219169083151502179055507f62e78cea01bee320cd4e420270b5ea74000d11b0c9f74754ebdbfc544b05a25833604051808273ffffffffffffffffffffffffffffffffffffffff1673ffffffffffffffffffffffffffffffffffffffff16815260200191505060405180910390a156fe5472616e7366657220746f20656d7074792061646472657373206e6f7420616c6c6f77656445524332303a20617070726f766520746f20746865207a65726f20616464726573734e756d626572206f6620746f6b656e73206d757374206265206d6f7265207468656e2030416c6c6f77616e6365206166746572206465637265617365206265636f6d65206d757374203c2030416c6c6f7720746f20656d7074792061646472657373206e6f7420616c6c6f77656445524332303a206275726e2066726f6d20746865207a65726f20616464726573734e6f7420656e6f75676820746f6b656e7320746f20616c6c6f7720616674657220696e63726561736545524332303a20617070726f76652066726f6d20746865207a65726f20616464726573734572726f722c206f6e6c79206f776e65722063616e206368616e67652070617373206d696e74657220726f6c65a265627a7a72315820313d59a04fc77c5b807ac2803934508002d15ff0b62d0ea3628714525e53a07264736f6c63430005100032",
  "source": "pragma solidity >=0.5.0 <0.8.0;\r\n\r\nimport \"./SafeMath.sol\";\r\nimport \"./Pausable.sol\";\r\n\r\ncontract Token is Pausable {\r\n\r\n    using SafeMath for uint256;\r\n\r\n    string public name = \"dbank\";\r\n    string public symbol = \"DBK\";\r\n    address private owner;\r\n    address public minter;\r\n    uint256 public totalSupply;\r\n    mapping (address => uint256) public balanceOf;\r\n    mapping (address => mapping (address => uint256)) public allowance;\r\n\r\n    constructor() public Pausable() {\r\n        owner = msg.sender;\r\n        minter = msg.sender;\r\n    }\r\n\r\n    function get_balance(address _user) public view returns(uint256){\r\n        return balanceOf[_user];        \r\n    }\r\n    \r\n    function passMinterRole(address dBank) public whenNotPaused returns (bool) {\r\n  \trequire(msg.sender==minter, 'Error, only owner can change pass minter role');\r\n  \tminter = dBank;\r\n\r\n    return true;\r\n    }\r\n    \r\n    function mint(address _account, uint256 _amount) whenNotPaused public {\r\n        require(_account != address(0), \"Mint to the zero address\");\r\n        require(_amount > 0, \"Zero amount\");\r\n        require(msg.sender==minter, \"Only minter allow to do this\");\r\n        totalSupply += _amount;\r\n        balanceOf[_account] += _amount;\r\n    }\r\n\r\n\r\n    function pause_token() public whenNotPaused returns (bool result) {\r\n        require(msg.sender == owner, \"Only owner can pause token\");\r\n        _pause();\r\n        return true;\r\n    }\r\n    \r\n    function unpause_token() public whenPaused returns (bool result) {\r\n        require(msg.sender == owner, \"Only owner can unpause token\");\r\n        _unpause();\r\n        return true;\r\n    }\r\n    \r\n    function burn(address _account, uint _amount) whenNotPaused public {\r\n        require(_account != address(0), \"ERC20: burn from the zero address\");\r\n        uint256 accountBalance = balanceOf[_account];\r\n\r\n        require(accountBalance >= _amount, \"Burn amount exceeds balance\");\r\n        require(msg.sender == owner || msg.sender==minter, \"Only owner can burn token\");\r\n        balanceOf[_account] = accountBalance - _amount;\r\n        totalSupply -= _amount;\r\n\r\n    }\r\n    \r\n    function transfer(address _to, uint256 _value) public whenNotPaused returns (bool result) {\r\n        require(_to != address(0), \"Transfer to empty address not allowed\");\r\n        require(balanceOf[msg.sender] >= _value, \"Not enough balance\");\r\n        require(_value > 0, \"Number of tokens must be more then 0\");\r\n\r\n        balanceOf[msg.sender] -= _value;\r\n        balanceOf[_to] += _value;\r\n        \r\n        return true;\r\n    }\r\n\r\n    function allowed(address _owner, address _spender) public whenNotPaused view returns (uint256) {\r\n        require(_owner != address(0));\r\n        require(_spender != address(0));\r\n        return allowance[_owner][_spender];\r\n    }\r\n    \r\n    function approve(address _owner, address _spender, uint256 amount) public whenNotPaused {\r\n        // will be dbank after deploy\r\n        require(msg.sender == minter);\r\n        require(_owner != address(0), \"ERC20: approve from the zero address\");\r\n        require(_spender != address(0), \"ERC20: approve to the zero address\");\r\n\r\n        allowance[_owner][_spender] += amount;\r\n\r\n    }\r\n\r\n\r\n    function allow(address _to, uint256 _amount) public whenNotPaused returns (bool result) {\r\n        require(_to != address(0), \"Allow to empty address not allowed\");\r\n        require(_amount > 0, \"Number of tokens must be more then 0\");\r\n        require(balanceOf[msg.sender] >= _amount, \"Not enough tokens to allow\");\r\n\r\n        allowance[msg.sender][_to] = _amount;\r\n        return true;\r\n    }\r\n\r\n    function increase_allow(address _to, uint256 _amount) public whenNotPaused returns (bool result) {\r\n        require(_to != address(0), \"Allow to empty address not allowed\");\r\n        require(_amount > 0, \"Number of tokens must be more then 0\");\r\n        require(balanceOf[msg.sender] >= allowed(msg.sender, _to).add(_amount), \"Not enough tokens to allow after increase\");\r\n\r\n        allowance[msg.sender][_to] += _amount;\r\n        return true;\r\n    }\r\n\r\n    function decrease_allow(address _to, uint256 _amount) public whenNotPaused returns (bool result) {\r\n        require(_to != address(0), \"Allow to empty address not allowed\");\r\n        require(_amount > 0, \"Number of tokens must be more then 0\");\r\n        require(allowed(msg.sender, _to).sub(_amount) > 0, \"Allowance after decrease become must < 0\");\r\n\r\n        allowance[msg.sender][_to] -= _amount;\r\n        return true;\r\n    }\r\n\r\n    function transferFrom(address _from, address _to, uint256 _amount) public whenNotPaused returns (bool result) {\r\n        require(_from != address(0));\r\n        require(_to != address(0));\r\n        require(_amount > 0);\r\n        require(allowance[_from][msg.sender] >= _amount, \"Not enough allowance\");\r\n        require(balanceOf[_from] >= _amount, \"Not enough tokens to transfer\");\r\n\r\n        allowance[_from][msg.sender] -= _amount;\r\n        balanceOf[_from] -= _amount;\r\n        balanceOf[_to] += _amount;\r\n        return true;\r\n    }\r\n\r\n}\r\n",
  "sourcePath": "C:\\Users\\ILYA\\Desktop\\truffle_dbank_final\\contracts\\Token.sol",
  "compiler": {
    "name": "solc",
    "version": "0.5.16+commit.9c3226ce.Emscripten.clang"
  },
  "schemaVersion": "3.3.3",
  "updatedAt": "2021-03-09T02:54:08.232Z",
  "networkType": "ethereum",
  "devdoc": {
    "methods": {}
  },
  "userdoc": {
    "methods": {}
  }
}